{
  "_format": "hh-sol-artifact-1",
  "contractName": "Notary",
  "sourceName": "contracts/Notary.sol",
  "abi": [
    {
      "inputs": [],
      "stateMutability": "nonpayable",
      "type": "constructor"
    },
    {
      "inputs": [
        {
          "internalType": "string",
          "name": "singleHash",
          "type": "string"
        },
        {
          "internalType": "uint256",
          "name": "timestamp",
          "type": "uint256"
        }
      ],
      "name": "addHash",
      "outputs": [
        {
          "internalType": "bool",
          "name": "",
          "type": "bool"
        }
      ],
      "stateMutability": "nonpayable",
      "type": "function"
    },
    {
      "inputs": [
        {
          "internalType": "address",
          "name": "user",
          "type": "address"
        },
        {
          "internalType": "string",
          "name": "hashValue",
          "type": "string"
        }
      ],
      "name": "checkHash",
      "outputs": [
        {
          "internalType": "bool",
          "name": "",
          "type": "bool"
        }
      ],
      "stateMutability": "view",
      "type": "function"
    },
    {
      "inputs": [
        {
          "internalType": "address",
          "name": "user",
          "type": "address"
        }
      ],
      "name": "getHashes",
      "outputs": [
        {
          "components": [
            {
              "internalType": "string",
              "name": "hashValue",
              "type": "string"
            },
            {
              "internalType": "uint256",
              "name": "timestamp",
              "type": "uint256"
            }
          ],
          "internalType": "struct Notary.Hash[]",
          "name": "",
          "type": "tuple[]"
        }
      ],
      "stateMutability": "view",
      "type": "function"
    }
  ],
  "bytecode": "0x608060405234801561001057600080fd5b50610dfe806100206000396000f3fe608060405234801561001057600080fd5b50600436106100415760003560e01c8063193dd2ea14610046578063bef5bb4514610076578063c96f5041146100a6575b600080fd5b610060600480360381019061005b91906107ba565b6100d6565b60405161006d9190610998565b60405180910390f35b610090600480360381019061008b9190610aef565b61020f565b60405161009d9190610b66565b60405180910390f35b6100c060048036038101906100bb9190610c0d565b610388565b6040516100cd9190610b66565b60405180910390f35b60606000808373ffffffffffffffffffffffffffffffffffffffff1673ffffffffffffffffffffffffffffffffffffffff168152602001908152602001600020805480602002602001604051908101604052809291908181526020016000905b82821015610204578382906000526020600020906002020160405180604001604052908160008201805461016990610c9c565b80601f016020809104026020016040519081016040528092919081815260200182805461019590610c9c565b80156101e25780601f106101b7576101008083540402835291602001916101e2565b820191906000526020600020905b8154815290600101906020018083116101c557829003601f168201915b5050505050815260200160018201548152505081526020019060010190610136565b505050509050919050565b600080600090505b6000808573ffffffffffffffffffffffffffffffffffffffff1673ffffffffffffffffffffffffffffffffffffffff1681526020019081526020016000208054905081101561037c5760008060008673ffffffffffffffffffffffffffffffffffffffff1673ffffffffffffffffffffffffffffffffffffffff16815260200190815260200160002082815481106102b2576102b1610cce565b5b906000526020600020906002020160000180546102ce90610c9c565b80601f01602080910402602001604051908101604052809291908181526020018280546102fa90610c9c565b80156103475780601f1061031c57610100808354040283529160200191610347565b820191906000526020600020905b81548152906001019060200180831161032a57829003601f168201915b505050505090506103588185610632565b1561036857600192505050610382565b50808061037490610d2c565b915050610217565b50600090505b92915050565b60008033905060005b6000808373ffffffffffffffffffffffffffffffffffffffff1673ffffffffffffffffffffffffffffffffffffffff168152602001908152602001600020805490508110156105345760008060008473ffffffffffffffffffffffffffffffffffffffff1673ffffffffffffffffffffffffffffffffffffffff168152602001908152602001600020828154811061042c5761042b610cce565b5b9060005260206000209060020201600001805461044890610c9c565b80601f016020809104026020016040519081016040528092919081815260200182805461047490610c9c565b80156104c15780601f10610496576101008083540402835291602001916104c1565b820191906000526020600020905b8154815290600101906020018083116104a457829003601f168201915b505050505090506105168188888080601f016020809104026020016040519081016040528093929190818152602001838380828437600081840152601f19601f82011690508083019250505050505050610632565b1561052057600080fd5b50808061052c90610d2c565b915050610391565b5061053d61068b565b85858080601f016020809104026020016040519081016040528093929190818152602001838380828437600081840152601f19601f820116905080830192505050505050508160000181905250838160200181815250506000808373ffffffffffffffffffffffffffffffffffffffff1673ffffffffffffffffffffffffffffffffffffffff16815260200190815260200160002081908060018154018082558091505060019003906000526020600020906002020160009091909190915060008201518160000190805190602001906106189291906106a5565b506020820151816001015550506001925050509392505050565b6000816040516020016106459190610db1565b604051602081830303815290604052805190602001208360405160200161066c9190610db1565b6040516020818303038152906040528051906020012014905092915050565b604051806040016040528060608152602001600081525090565b8280546106b190610c9c565b90600052602060002090601f0160209004810192826106d3576000855561071a565b82601f106106ec57805160ff191683800117855561071a565b8280016001018555821561071a579182015b828111156107195782518255916020019190600101906106fe565b5b509050610727919061072b565b5090565b5b8082111561074457600081600090555060010161072c565b5090565b6000604051905090565b600080fd5b600080fd5b600073ffffffffffffffffffffffffffffffffffffffff82169050919050565b60006107878261075c565b9050919050565b6107978161077c565b81146107a257600080fd5b50565b6000813590506107b48161078e565b92915050565b6000602082840312156107d0576107cf610752565b5b60006107de848285016107a5565b91505092915050565b600081519050919050565b600082825260208201905092915050565b6000819050602082019050919050565b600081519050919050565b600082825260208201905092915050565b60005b8381101561084d578082015181840152602081019050610832565b8381111561085c576000848401525b50505050565b6000601f19601f8301169050919050565b600061087e82610813565b610888818561081e565b935061089881856020860161082f565b6108a181610862565b840191505092915050565b6000819050919050565b6108bf816108ac565b82525050565b600060408301600083015184820360008601526108e28282610873565b91505060208301516108f760208601826108b6565b508091505092915050565b600061090e83836108c5565b905092915050565b6000602082019050919050565b600061092e826107e7565b61093881856107f2565b93508360208202850161094a85610803565b8060005b8581101561098657848403895281516109678582610902565b945061097283610916565b925060208a0199505060018101905061094e565b50829750879550505050505092915050565b600060208201905081810360008301526109b28184610923565b905092915050565b600080fd5b600080fd5b7f4e487b7100000000000000000000000000000000000000000000000000000000600052604160045260246000fd5b6109fc82610862565b810181811067ffffffffffffffff82111715610a1b57610a1a6109c4565b5b80604052505050565b6000610a2e610748565b9050610a3a82826109f3565b919050565b600067ffffffffffffffff821115610a5a57610a596109c4565b5b610a6382610862565b9050602081019050919050565b82818337600083830152505050565b6000610a92610a8d84610a3f565b610a24565b905082815260208101848484011115610aae57610aad6109bf565b5b610ab9848285610a70565b509392505050565b600082601f830112610ad657610ad56109ba565b5b8135610ae6848260208601610a7f565b91505092915050565b60008060408385031215610b0657610b05610752565b5b6000610b14858286016107a5565b925050602083013567ffffffffffffffff811115610b3557610b34610757565b5b610b4185828601610ac1565b9150509250929050565b60008115159050919050565b610b6081610b4b565b82525050565b6000602082019050610b7b6000830184610b57565b92915050565b600080fd5b600080fd5b60008083601f840112610ba157610ba06109ba565b5b8235905067ffffffffffffffff811115610bbe57610bbd610b81565b5b602083019150836001820283011115610bda57610bd9610b86565b5b9250929050565b610bea816108ac565b8114610bf557600080fd5b50565b600081359050610c0781610be1565b92915050565b600080600060408486031215610c2657610c25610752565b5b600084013567ffffffffffffffff811115610c4457610c43610757565b5b610c5086828701610b8b565b93509350506020610c6386828701610bf8565b9150509250925092565b7f4e487b7100000000000000000000000000000000000000000000000000000000600052602260045260246000fd5b60006002820490506001821680610cb457607f821691505b60208210811415610cc857610cc7610c6d565b5b50919050565b7f4e487b7100000000000000000000000000000000000000000000000000000000600052603260045260246000fd5b7f4e487b7100000000000000000000000000000000000000000000000000000000600052601160045260246000fd5b6000610d37826108ac565b91507fffffffffffffffffffffffffffffffffffffffffffffffffffffffffffffffff821415610d6a57610d69610cfd565b5b600182019050919050565b600081905092915050565b6000610d8b82610813565b610d958185610d75565b9350610da581856020860161082f565b80840191505092915050565b6000610dbd8284610d80565b91508190509291505056fea2646970667358221220666dbbbbf228fd2149548b8d4617352ce79d3a06d8de9b268f3d26ec1a02c93064736f6c63430008090033",
  "linkReferences": {},
  "deployedLinkReferences": {}
}